:100000000C942A000C9447000C9447000C94470071
:100010000C9447000C9447000C9447000C94470044
:100020000C9447000C9447000C9447000C94470034
:100030000C9447000C9447000C9447000C94470024
:100040000C9447000C9447000C9447000C94470014
:100050000C94470011241FBECFE5D8E0DEBFCDBF12
:1000600010E0A0E6B0E0E8E1F2E002C005900D92F9
:10007000A037B107D9F720E0A0E7B0E001C01D929A
:10008000A137B207E1F70E94FF000C940A010C941B
:10009000000092B39F7B92BB982F907F95BB92B349
:1000A000906192BBE9EFF0E03197F1F700C00000FA
:1000B00092B39F7E92BB8295807F85BB82B3806125
:1000C00082BB89EF90E00197F1F700C0000082B396
:1000D0008F7E82BB08958FEF84BB81BB82B38F7EFE
:1000E00082BB83E30E94490082E30E94490088E2C8
:1000F0000E9449008EE00E94490081E00E94490070
:1001000083EF91E00197F1F700C00000089592B3EA
:10011000906492BB982F907F95BB92B3906192BBF5
:10012000E9EFF0E03197F1F700C0000092B39F7E55
:1001300092BB8295807F85BB82B3806182BB89EF51
:1001400090E00197F1F700C0000082B38F7E82BB80
:1001500008950F931F93CF938C01C0E003C00E94BA
:100160008700CF5FF801EC0FF11D80818111F7CF7F
:10017000CF911F910F9108958AB38E7F8ABB87E834
:1001800086B980EE87B90895CF93DF9300D0CDB7BD
:10019000DEB79DEC899F912D1124969596959695A5
:1001A00020E3290F2983990F292F220F220F920F65
:1001B000891B805D8A838DE80E944900CE010196EB
:1001C0000E94A900CE0102960E94A9000F900F90F4
:1001D000DF91CF91089586B1806486B9349BFECFBC
:1001E00085B1809370000E94C4002FE38DE093E0FE
:1001F000215080409040E1F700C0000008950E9427
:100200006B0080E690E00E94A9000E94BC000E9462
:08021000EB00FDCFF894FFCFD5
:100218002054656D70657261747572653D200000CB
:00000001FF
